{
  "contractName": "Category",
  "abi": [
    {
      "inputs": [],
      "payable": false,
      "stateMutability": "nonpayable",
      "type": "constructor"
    },
    {
      "anonymous": false,
      "inputs": [
        {
          "indexed": false,
          "internalType": "address",
          "name": "categoryHolder",
          "type": "address"
        },
        {
          "indexed": false,
          "internalType": "uint256",
          "name": "activationTime",
          "type": "uint256"
        },
        {
          "indexed": false,
          "internalType": "string",
          "name": "categoryType",
          "type": "string"
        }
      ],
      "name": "CategoryAdded",
      "type": "event"
    },
    {
      "anonymous": false,
      "inputs": [
        {
          "indexed": false,
          "internalType": "address",
          "name": "categoryHolder",
          "type": "address"
        },
        {
          "indexed": false,
          "internalType": "bool",
          "name": "newState",
          "type": "bool"
        },
        {
          "indexed": false,
          "internalType": "uint256",
          "name": "timestamp",
          "type": "uint256"
        }
      ],
      "name": "StateChanged",
      "type": "event"
    },
    {
      "constant": true,
      "inputs": [
        {
          "internalType": "address",
          "name": "",
          "type": "address"
        }
      ],
      "name": "category",
      "outputs": [
        {
          "internalType": "uint256",
          "name": "activationTime",
          "type": "uint256"
        },
        {
          "internalType": "bool",
          "name": "isActive",
          "type": "bool"
        },
        {
          "internalType": "string",
          "name": "categoryType",
          "type": "string"
        }
      ],
      "payable": false,
      "stateMutability": "view",
      "type": "function"
    },
    {
      "constant": true,
      "inputs": [],
      "name": "categoryCount",
      "outputs": [
        {
          "internalType": "uint256",
          "name": "",
          "type": "uint256"
        }
      ],
      "payable": false,
      "stateMutability": "view",
      "type": "function"
    },
    {
      "constant": true,
      "inputs": [
        {
          "internalType": "uint256",
          "name": "",
          "type": "uint256"
        }
      ],
      "name": "categoryLists",
      "outputs": [
        {
          "internalType": "uint256",
          "name": "activationTime",
          "type": "uint256"
        },
        {
          "internalType": "bool",
          "name": "isActive",
          "type": "bool"
        },
        {
          "internalType": "string",
          "name": "categoryType",
          "type": "string"
        }
      ],
      "payable": false,
      "stateMutability": "view",
      "type": "function"
    },
    {
      "constant": true,
      "inputs": [
        {
          "internalType": "uint256",
          "name": "",
          "type": "uint256"
        }
      ],
      "name": "categoryTypes",
      "outputs": [
        {
          "internalType": "string",
          "name": "",
          "type": "string"
        }
      ],
      "payable": false,
      "stateMutability": "view",
      "type": "function"
    },
    {
      "constant": false,
      "inputs": [
        {
          "internalType": "address",
          "name": "_categoryHolder",
          "type": "address"
        },
        {
          "internalType": "uint256",
          "name": "_categoryType",
          "type": "uint256"
        }
      ],
      "name": "addCategory",
      "outputs": [],
      "payable": false,
      "stateMutability": "nonpayable",
      "type": "function"
    },
    {
      "constant": false,
      "inputs": [
        {
          "internalType": "address",
          "name": "_categoryHolder",
          "type": "address"
        },
        {
          "internalType": "bool",
          "name": "_newState",
          "type": "bool"
        }
      ],
      "name": "changeState",
      "outputs": [],
      "payable": false,
      "stateMutability": "nonpayable",
      "type": "function"
    },
    {
      "constant": false,
      "inputs": [
        {
          "internalType": "string",
          "name": "_categoryType",
          "type": "string"
        }
      ],
      "name": "addCategoryType",
      "outputs": [],
      "payable": false,
      "stateMutability": "nonpayable",
      "type": "function"
    },
    {
      "constant": true,
      "inputs": [],
      "name": "getCategoryListLength",
      "outputs": [
        {
          "internalType": "uint256",
          "name": "",
          "type": "uint256"
        }
      ],
      "payable": false,
      "stateMutability": "view",
      "type": "function"
    },
    {
      "constant": true,
      "inputs": [
        {
          "internalType": "uint256",
          "name": "index",
          "type": "uint256"
        }
      ],
      "name": "getCategoryListItem",
      "outputs": [
        {
          "internalType": "uint256",
          "name": "",
          "type": "uint256"
        },
        {
          "internalType": "bool",
          "name": "",
          "type": "bool"
        },
        {
          "internalType": "string",
          "name": "",
          "type": "string"
        }
      ],
      "payable": false,
      "stateMutability": "view",
      "type": "function"
    }
  ],
  "bytecode": "0x608060405234801561001057600080fd5b50600080546001600160a01b03191633179055610ecb806100326000396000f3fe608060405234801561001057600080fd5b50600436106100935760003560e01c80636db45d13116100665780636db45d131461021b57806399b430e5146102235780639ab4411f146102c9578063cfc3a8cf146102e6578063f30ebd3a1461030c57610093565b80630d062d331461009857806322674605146100c85780632be32dbb1461015a5780633a0dd92514610174575b600080fd5b6100c6600480360360408110156100ae57600080fd5b506001600160a01b0381351690602001351515610338565b005b6100e5600480360360208110156100de57600080fd5b503561051f565b6040805160208082528351818301528351919283929083019185019080838360005b8381101561011f578181015183820152602001610107565b50505050905090810190601f16801561014c5780820380516001836020036101000a031916815260200191505b509250505060405180910390f35b6101626105c5565b60408051918252519081900360200190f35b6101916004803603602081101561018a57600080fd5b50356105cb565b604051808481526020018315151515815260200180602001828103825283818151815260200191508051906020019080838360005b838110156101de5781810151838201526020016101c6565b50505050905090810190601f16801561020b5780820380516001836020036101000a031916815260200191505b5094505050505060405180910390f35b61016261071e565b6100c66004803603602081101561023957600080fd5b81019060208101813564010000000081111561025457600080fd5b82018360208201111561026657600080fd5b8035906020019184600183028401116401000000008311171561028857600080fd5b91908080601f01602080910402602001604051908101604052809392919081815260200183838082843760009201919091525092955061077c945050505050565b610191600480360360208110156102df57600080fd5b5035610856565b610191600480360360208110156102fc57600080fd5b50356001600160a01b0316610918565b6100c66004803603604081101561032257600080fd5b506001600160a01b038135169060200135610993565b6000546001600160a01b0316331461038d576040805162461bcd60e51b815260206004820152601360248201527220b1b1b2b9b9903737ba1033b930b73a32b21760691b604482015290519081900360640190fd5b6001600160a01b0382166103e8576040805162461bcd60e51b815260206004820152601f60248201527f506c656173652070726f7669646520612076616c696420616464726573732e00604482015290519081900360640190fd5b6001600160a01b03821660009081526003602052604090205461043c5760405162461bcd60e51b8152600401808060200182810382526021815260200180610e766021913960400191505060405180910390fd5b6001600160a01b03821660009081526003602052604090206001015460ff16151581151514156104b3576040805162461bcd60e51b815260206004820152601d60248201527f416c726561647920696e207468652073696d696c61722073746174652e000000604482015290519081900360640190fd5b6001600160a01b038216600081815260036020908152604091829020600101805485151560ff1990911681179091558251938452908301524282820152517fb965fe859adbfcaf277bb9d21a5de534aa40f5a06a58dbf224de25d789b063a99181900360600190a15050565b6001818154811061052c57fe5b600091825260209182902001805460408051601f60026000196101006001871615020190941693909304928301859004850281018501909152818152935090918301828280156105bd5780601f10610592576101008083540402835291602001916105bd565b820191906000526020600020905b8154815290600101906020018083116105a057829003601f168201915b505050505081565b60045481565b6000805481906060906001600160a01b03163314610626576040805162461bcd60e51b815260206004820152601360248201527220b1b1b2b9b9903737ba1033b930b73a32b21760691b604482015290519081900360640190fd5b61062e610d1d565b6002858154811061063b57fe5b6000918252602091829020604080516060810182526003939093029091018054835260018082015460ff161515848601526002808301805485516101009482161594909402600019011691909104601f81018790048702830187018552808352949592949386019391929091908301828280156106f95780601f106106ce576101008083540402835291602001916106f9565b820191906000526020600020905b8154815290600101906020018083116106dc57829003601f168201915b5050509190925250508151602083015160409093015190989297509550909350505050565b600080546001600160a01b03163314610774576040805162461bcd60e51b815260206004820152601360248201527220b1b1b2b9b9903737ba1033b930b73a32b21760691b604482015290519081900360640190fd5b506002545b90565b6000546001600160a01b031633146107d1576040805162461bcd60e51b815260206004820152601360248201527220b1b1b2b9b9903737ba1033b930b73a32b21760691b604482015290519081900360640190fd5b805161080e5760405162461bcd60e51b8152600401808060200182810382526028815260200180610e4e6028913960400191505060405180910390fd5b600180548082018083556000929092528251610851917fb10e2d527612073b26eecdfd717e6a320cf44b4afac2b0732d9fcbe2b7fa0cf601906020850190610d40565b505050565b6002818154811061086357fe5b6000918252602091829020600391909102018054600180830154600280850180546040805161010096831615969096026000190190911692909204601f810188900488028501880190925281845293965060ff9091169491929183018282801561090e5780601f106108e35761010080835404028352916020019161090e565b820191906000526020600020905b8154815290600101906020018083116108f157829003601f168201915b5050505050905083565b60036020908152600091825260409182902080546001808301546002808501805488516101009582161595909502600019011691909104601f8101879004870284018701909752868352929560ff9091169491929183018282801561090e5780601f106108e35761010080835404028352916020019161090e565b6000546001600160a01b031633146109e8576040805162461bcd60e51b815260206004820152601360248201527220b1b1b2b9b9903737ba1033b930b73a32b21760691b604482015290519081900360640190fd5b6001600160a01b038216610a43576040805162461bcd60e51b815260206004820152601f60248201527f506c656173652070726f7669646520612076616c696420616464726573732e00604482015290519081900360640190fd5b604051806060016040528042815260200160011515815260200160018381548110610a6a57fe5b600091825260209182902001805460408051601f6002600019610100600187161502019094169390930492830185900485028101850190915281815292830182828015610af85780601f10610acd57610100808354040283529160200191610af8565b820191906000526020600020905b815481529060010190602001808311610adb57829003601f168201915b5050509190925250506001600160a01b038316600090815260036020908152604091829020835181558382015160018201805460ff1916911515919091179055918301518051610b4e9260028501920190610d40565b5050506001600160a01b038216600090815260036020819052604082206002805460018082018084559583905283547f405787fa12a823e0f2b7631cc41b3ba8828b3321ca811111fa75cd3aa3bb5ace92909502918201948555808401547f405787fa12a823e0f2b7631cc41b3ba8828b3321ca811111fa75cd3aa3bb5acf8301805460ff191660ff90921615159190911790558284018054949594610c28947f405787fa12a823e0f2b7631cc41b3ba8828b3321ca811111fa75cd3aa3bb5ad09094019391926101009082161502600019011604610dbe565b505060048054600190810190915580547f5cc6bca957d4c0b5bea79abbc50a67547048e6cbb14fa85ff6e81139edd4573c935085925042919085908110610c6b57fe5b6000918252602091829020604080516001600160a01b03871681529384018590526060908401818152919092018054600260001961010060018416150201909116049284018390529291608083019084908015610d095780601f10610cde57610100808354040283529160200191610d09565b820191906000526020600020905b815481529060010190602001808311610cec57829003601f168201915b505094505050505060405180910390a15050565b604051806060016040528060008152602001600015158152602001606081525090565b828054600181600116156101000203166002900490600052602060002090601f016020900481019282601f10610d8157805160ff1916838001178555610dae565b82800160010185558215610dae579182015b82811115610dae578251825591602001919060010190610d93565b50610dba929150610e33565b5090565b828054600181600116156101000203166002900490600052602060002090601f016020900481019282601f10610df75780548555610dae565b82800160010185558215610dae57600052602060002091601f016020900482015b82811115610dae578254825591600101919060010190610e18565b61077991905b80821115610dba5760008155600101610e3956fe43617465676f727920747970652063616e6e6f7420626520616e20656d70747920737472696e672e41646472657373206973206e6f7420612043617465676f727920686f6c6465722ea265627a7a7231582032a0ed14179874370fdd67ba17a5850a6b81fffbff1251ad0514a244090d355864736f6c63430005100032",
  "source": "pragma solidity >=0.5.1 <0.7.0;\r\n\r\ncontract Category {\r\n    address owner;\r\n   \r\n    struct Category {\r\n        uint activationTime;\r\n        bool isActive;\r\n        string categoryType;\r\n    }\r\n   \r\n    string[] public categoryTypes;\r\n    \r\n    Category[] public categoryLists;\r\n   \r\n    mapping(address  => Category) public category;\r\n    \r\n    uint public categoryCount;\r\n\r\n    event StateChanged(address categoryHolder, bool newState, uint timestamp);\r\n    \r\n    event CategoryAdded(address categoryHolder, uint activationTime, string categoryType);\r\n\r\n    modifier onlyOwner() {\r\n        require(msg.sender == owner, \"Access not granted.\");\r\n        _;\r\n    }\r\n\r\n    constructor()\r\n    public {\r\n        owner = msg.sender;\r\n    }\r\n\r\n    function addCategory(address _categoryHolder,uint _categoryType) public \r\n    onlyOwner {\r\n        require(_categoryHolder != address(0), \"Please provide a valid address.\");\r\n        category[_categoryHolder] = Category(now, true, categoryTypes[_categoryType]);\r\n        categoryLists.push(category[_categoryHolder]);\r\n        categoryCount++;\r\n\r\n        emit CategoryAdded(_categoryHolder, now, categoryTypes[_categoryType]);\r\n    }\r\n    \r\n    function changeState(address _categoryHolder,bool _newState) public\r\n    onlyOwner {\r\n        require(_categoryHolder != address(0), \"Please provide a valid address.\");\r\n        require(category[_categoryHolder].activationTime != 0, \"Address is not a Category holder.\");\r\n        require(category[_categoryHolder].isActive != _newState, \"Already in the similar state.\");\r\n        category[_categoryHolder].isActive = _newState;\r\n\r\n        emit StateChanged(_categoryHolder, _newState, now);\r\n    }\r\n\r\n    function addCategoryType(string memory _categoryType) public\r\n    onlyOwner {\r\n        require(bytes(_categoryType).length != 0, \"Category type cannot be an empty string.\");\r\n        categoryTypes.push(_categoryType);\r\n    }\r\n\r\n    function getCategoryListLength() public onlyOwner view returns (uint) {\r\n        return categoryLists.length;\r\n    }\r\n    \r\n    function getCategoryListItem(uint index) public onlyOwner view returns (uint, bool, string memory){\r\n       Category memory categoryItem = categoryLists[index];\r\n       return(categoryItem.activationTime, categoryItem.isActive, categoryItem.categoryType);\r\n    }\r\n}\r\n",
  "sourcePath": "C:/Users/Tejkumar.Ilindra/Personal/projects/drizzle-ethereum-demo/contracts/Category.sol",
  "compiler": {
    "name": "solc",
    "version": "0.5.16+commit.9c3226ce.Emscripten.clang"
  },
  "schemaVersion": "3.3.3",
  "updatedAt": "2021-01-27T02:36:48.810Z",
  "networkType": "ethereum",
  "devdoc": {
    "methods": {}
  },
  "userdoc": {
    "methods": {}
  }
}